:020000040800F2
:10000000E8080020290200083F260008DF22000837
:100010003D2600081F040008A92C0008000000006D
:10002000000000000000000000000000432600085F
:10003000B50400080000000041260008452600081D
:10004000430200084302000843020008430200087C
:10005000430200084302000843020008430200086C
:10006000430200084302000843020008430200085C
:10007000430200084302000843020008430200084C
:10008000210400082D040008430200084302000870
:10009000430200084302000843020008430200082C
:1000A000430200084302000843020008ED2600084E
:1000B00043020008F926000805270008430200084B
:1000C00043020008430200084302000843020008FC
:1000D00043020008430200089D2C00084302000868
:1000E00043020008430200084302000811270008E9
:1000F00035270008292700081D27000843020008AB
:1001000043020008430200084302000843020008BB
:1001100043020008430200084302000843020008AB
:10012000430200084302000843020008430200089B
:10013000430200084302000843020008430200088B
:10014000430200084302000843020008430200087B
:10015000430200084302000843020008430200086B
:10016000430200084302000843020008430200085B
:100170004302000843020008430200080000000098
:10018000430200084302000800F002F800F03CF8C7
:100190000AA090E8000C82448344AAF10107DA45E2
:1001A00001D100F031F8AFF2090EBAE80F0013F0F8
:1001B000010F18BFFB1A43F001031847E02E00009F
:1001C000002F0000103A24BF78C878C1FAD852072F
:1001D00024BF30C830C144BF04680C6070470000C1
:1001E0000023002400250026103A28BF78C1FBD840
:1001F000520728BF30C148BF0B6070471FB502F0DF
:1002000031FF1FBD10B510BD00F0CFF81146FFF74C
:10021000F5FF02F05BFD00F0EDF803B4FFF7F2FF2D
:1002200003BC00F0F5F80000094880470948004782
:10023000FEE7FEE7FEE7FEE7FEE7FEE7FEE7FEE796
:10024000FEE7FEE704480549054A064B70470000F3
:10025000DD26000889010008E8020020E8080020E7
:10026000E8040020E804002053EA020C00F0698052
:100270002DE9F04B4FF00006002B1FBFB3FA83F5BA
:1002800003FA05F424FA05F65E4012BF1643B2FAEB
:1002900082F502FA05F4C5F120051EBF22FA05FC1D
:1002A00044EA0C04203556EA044C4FEA144418BFC3
:1002B000641C4FF000084FF00009904271EB030CF2
:1002C00039D3002919BFB1FA81F701FA07F6B0FA5C
:1002D00080F700FA07F6C7F120071EBF20FA07FCD7
:1002E00046EA0C062037B6FBF4FCA7EB0507103FE7
:1002F00007F01F0BCBF120060CFA0BFB2CFA06F6CD
:1003000044BFB3460026202FA4BF5E464FF0000B2B
:100310005BEA060C08BF4FF0010B19EB0B09ABFBB6
:10032000027C48EB0608C01B06FB02CC0BFB03CC8F
:1003300071EB0C01C1E70B46024641464846BDE859
:10034000F08B13B54FF000004FF00001AFF30080C9
:10035000BDE81C4070474FF0000200B513469446BC
:100360009646203922BFA0E80C50A0E80C50B1F10D
:100370002001BFF4F7AF090728BFA0E80C5048BF21
:100380000CC05DF804EB890028BF40F8042B08BFBF
:10039000704748BF20F8022B11F0804F18BF00F8BB
:1003A000012B7047704770477047754600F02CF876
:1003B000AE4605006946534620F00700854618B052
:1003C00020B5FFF73FFFBDE820404FF000064FF09B
:1003D00000074FF000084FF0000B21F00701AC467A
:1003E000ACE8C009ACE8C009ACE8C009ACE8C00999
:1003F0008D46704710B50446AFF300802046BDE837
:100400001040FFF70ABF0000004870478802002034
:1004100001491820ABBEFEE7260002007047FEE748
:10042000014800F0A5B80000C8010020014800F014
:100430009FB800002802002001681823CAB2103AB1
:10044000B2FBF3F2054B6FF30901032A9B5CC36512
:1004500000D9091D81650846704700007930000801
:1004600010B5014600208B698A6A4FF0C07453B101
:10047000B3F5005F15D072B1012A0CD0022A0AD060
:10048000032A09D104E01AB1012A06D0022A03D1B5
:10049000C96AC90100D5012010BDC96AA142FAD0BC
:1004A00010BD002AF7D0012AF2D0022AF3D0032A85
:1004B000F3D010BD704772B6FEE72DE9F041044657
:1004C000876D00F09FFA064694F835000025022853
:1004D00006D08020606584F834500120BDE8F081AA
:1004E0002068016821F0160101602068416921F04F
:1004F00080014161206C08B9A06C20B120680168BE
:1005000021F0080101602068016821F0010101600B
:100510000CE000F077FA801B052807D920206065E1
:10052000032084F8350084F83450D7E72068006849
:10053000C007EED194F85C103F208840B8600120DD
:1005400084F8350084F834500020C7E790F835105F
:10055000022903D08021416501207047052180F8E0
:1005600035100068016821F001010160002070472A
:100570002DE9F84304464FF00009CDF80090634898
:100580004FF41651A56D0068B0FBF1F72E6894F892
:100590005C10082000FA01F131420FD021680A688E
:1005A00052070BD50A6822F004020A6094F85C1026
:1005B0008840A860606D40F00100606594F85C10B0
:1005C0004FF0010808FA01F0304208D0216849696B
:1005D000090604D5A860606D40F00200606594F8DB
:1005E0005C1004208840304208D0216809688907DF
:1005F00004D5A860606D40F00400606594F85C105C
:1006000010208840304218D021680968090714D5A5
:10061000A86020680168490304D50068000308D574
:10062000A16C07E00168C90503D4016821F0080145
:100630000160216C09B12046884794F85C102020A5
:100640008840304231D021680968C9062DD5A8609C
:1006500094F8350005282068016806D0490347D57D
:10066000006800031DD4616C1CE021F016010160DC
:100670002068416921F080014161206C08B9A06CBB
:1006800020B12068016821F00801016094F85C1035
:100690003F208840A86084F8358084F83490216D2C
:1006A0001FE0E16B09B120468847606D00282BD020
:1006B000606DC00714D0052084F8350020680168FB
:1006C00021F0010101600098401C0090B84203D85D
:1006D00020680068C007F6D184F8358084F834902B
:1006E000E16C002910D001B02046BDE8F043084776
:1006F0000168C905D5D4016821F01001016084F8B2
:10070000358084F83490CCE7BDE8F88314000020ED
:100710002DE9F041044600F075F906465CB102206F
:1007200084F83500002584F834502068016821F0F1
:10073000010101600DE00120BDE8F08100F062F9E7
:10074000801B052805D920206065032084F835002A
:10075000F2E720680068C007F0D1226811682048DD
:100760000140D4E901031843D4E903363343184365
:1007700063691843A3691843E3691843236A18435C
:100780000843616A042903D1D4E90B1319430843D0
:10079000106020684069666A20F0070130460E4309
:1007A000012704280CD1A06A0643E06A40B1204624
:1007B000FFF756FE20B14020606584F83570BAE737
:1007C000206846612046FFF737FE94F85C203F2101
:1007D00091408160656584F835700020ACE70000C9
:1007E0003F8010F070B5044600F00CF90546601C1F
:1007F00002D004480078044400F004F9401BA042F1
:10080000FAD370BD080000202DE9F84FDFF8BCA135
:100810000022012503264FF00F090AF1040BAAF16B
:10082000040E00BF0B6805FA02F42340A34270D106
:100830000F7907F00307012F01D0022F16D1876827
:100840004FEA420806FA08FC27EA0C07D1F80CC068
:100850000CFA08FC4CEA070CC0F808C04768A7432C
:100860000C79C4F3001494403C4344600C79E44395
:10087000A4070AD0C4684FEA420C06FA0CF7BC433E
:100880008F6807FA0CF72743C7600C7904F003045C
:10089000022C12D1D40800EB840CDCF8204057075E
:1008A000FF0E09FA07F824EA0804D1F8108008FAC4
:1008B00007F848EA0408CCF8208004684FEA420CA4
:1008C00006FA0CF7BC430F7907F0030707FA0CF799
:1008D000274307604C6814F4403F70D03C4C2768B5
:1008E00047F480472760246822F0030704F480441B
:1008F0000094384C07EB040CDCF8084897074FEAE3
:10090000177809FA08F7BC43334FB84202D10027E1
:1009100024E054E0314FB84201D101271EE0304FAE
:10092000B84201D1022719E02E4FB84201D1032766
:1009300014E02D4FB84201D104270FE02B4FB842ED
:1009400001D105270AE02A4FB84201D1062705E068
:10095000284FB84201D1072700E0082707FA08F717
:100960002743CCF80878DAF800405746D1F804C09D
:100970009C435FEACC2C00D51C433C60DBF8004074
:100980005F46D1F804C09C435FEA8C2C00D51C4321
:100990003C60DEF800407746D1F804C09C435FEA33
:1009A0008C3C00D51C433C60084F083F3C68D1F8A4
:1009B00004C09C435FEACC3C00D51C433C60521C05
:1009C000102AFFF42FAFBDE8F88F0000083C01406B
:1009D0004438024000300140000002400004024060
:1009E00000080240000C02400010024000140240C7
:1009F00000180240001C02400AB1816170470904DE
:100A0000FBE70000014880687047000008000020F4
:100A10000248816802781144816070470800002014
:100A20000B4810B5016841F400710160016841F4A0
:100A300080610160016841F480710160032000F071
:100A40006FF80F2000F006F800F024F8002010BD29
:100A5000003C024070B50D4D04464FF47A71287881
:100A6000B1FBF0F00A490968B1FBF0F000F00CFBB3
:100A700048B9102C07D200222146501E00F030F851
:100A800000206C6070BD012070BD000008000020D7
:100A9000140000200A4808B5016841F48041016053
:100AA000006800F4804000900548001F016841F094
:100AB00080510160006800F08050009008BD000087
:100AC00044380240002809DB00F01F020121914058
:100AD0004009800000F1E020C0F8001170470000DC
:100AE000F0B40E4B1B680C46C3F30223C3F1070599
:100AF000042D00D90425191D072901D2002300E087
:100B0000DB1E012606FA05F1491E214099409E4050
:100B1000761E16403143F0BC02F0C7B80CED00E081
:100B2000064900F0070208684FF6FF03184040EA44
:100B30000220034A10430860704700000CED00E0FB
:100B40000000FA052DE9F0470E46050065D0DFF8F4
:100B50001481D8F80000F7B200F00700B04207D2C5
:100B600088F80070D8F8000000F00700B04254D1B7
:100B700028683D4C810712D5400703D5206840F412
:100B8000E05020602878000703D5206840F46040DA
:100B900020602068A96820F0F000084320602878D1
:100BA000C0072DD0304968680839012812D00228C2
:100BB00013D0032811D00968890700292DDA21688C
:100BC00021F0030101432160FFF71CFF814641F240
:100BD000883A0EE009688903EFE709688901ECE7C4
:100BE000FFF710FFA0EB0901514502D90320BDE832
:100BF000F0872068696800F00C00B0EB810FEFD13E
:100C0000D8F80010404601F00701B14207D907703B
:100C1000006800F00700B04201D00120E7E7287823
:100C2000400705D52068E96820F4E05008432060BB
:100C30002878000706D52068296920F4604040EA3A
:100C4000C100206000F038F82168084AC1F30311A0
:100C5000515CC8400649086006480068FFF7FAFE84
:100C60000020C4E7003C0240083802408130000800
:100C7000140000200C0000200448054900680968A1
:100C8000044AC1F38221515CC8407047140000201F
:100C90000838024091300008044805490068096896
:100CA000044AC1F34231515CC8407047140000202F
:100CB0000838024091300008154810B5006810F05F
:100CC0000C02144813D01449042A0FD0082A0ED15C
:100CD0000F4C241F2268236802F03F025B0207D5F5
:100CE0002068C0F38810A0FB010106E0084610BD93
:100CF0002168C1F38811A1FB00010023FFF7B4FABA
:100D00002168C1F30141491C4900B0FBF1F010BD5D
:100D1000083802400024F40040787D012DE9F84FA6
:100D200004006ED02078DFF84C93C007A9F10405C9
:100D30004AD009F104000168C1F38101012908D0FA
:100D40000068C0F3810002280AD1D9F800004002EF
:100D500006D52868800337D560680028E1D033E0E5
:100D60006068B0F5803F10D0B0F5A02F286810D093
:100D700020F480302860286820F480202860606893
:100D8000A8B1FFF73FFE06460DE0286840F480302A
:100D9000F4E740F480202860F7E700BFFFF732FE59
:100DA000801B642873D828688003F7D50CE0FFF710
:100DB00029FE064605E000BFFFF724FE801B6428DD
:100DC000F0D828688003F7D42078DFF8AC82800759
:100DD0004FF0000A3ED5A748001D016811F00C0F26
:100DE00008D00068C0F3810002280BD1D9F80000B8
:100DF000400207D42868800716D5E068012800D192
:100E000012E033E1E068B8B10120C8F80000FFF754
:100E1000F9FD064605E000BFFFF7F4FD801B022840
:100E2000C0D828688007F7D52868216920F0F80025
:100E300040EAC10028600DE0C8F800A0FFF7E2FD1D
:100E4000064604E0FFF7DEFD801B02281FD8286855
:100E50008007F7D42078000722D5864F874861693C
:100E6000703771B101210160FFF7CCFD064604E047
:100E7000FFF7C8FD801B022809D838688007F7D51E
:100E80000EE0C0F800A0FFF7BDFD064605E082E0D9
:100E9000FFF7B8FD801B02287DD838688007F7D49B
:100EA0002078400768D5DFF8CCB100270BF13C0B68
:100EB000DBF80000C0000BD4DBF8001041F08051DB
:100EC000CBF80010DBF80000012700F08050009004
:100ED0006B4E3068C00510D4306840F480703060CC
:100EE000FFF790FD009005E0FFF78CFD0099401A98
:100EF000022850D83068C005F6D55E4EA0686C3622
:100F000001280FD00528306810D020F00100306093
:100F1000306820F004003060A068B8B1FFF772FDBF
:100F200000900FE0306840F00100F4E740F004006A
:100F30003060F7E7FFF766FD0099411A41F288300B
:100F4000814266D830688007F4D50EE0FFF75AFD7D
:100F5000009007E0FFF756FD0099411A41F28830F2
:100F6000814256D830688007F4D42FB1DBF80010E6
:100F700021F08051CBF80010A069C8B33D49091D8C
:100F80000968C1F3810102294AD00228504607D0DE
:100F9000C8F8600000E03CE0FFF734FD04463BE0A9
:100FA0004746C8F86000FFF72DFD064605E000BF84
:100FB000FFF728FD801B02282BD828688001F7D472
:100FC000D4E907010843A16A2E4A490802EB01410E
:100FD000626A41EA8211084394F82C1040EA0161E8
:100FE000C9F8001001203866FFF70CFD044606E042
:100FF0003EE000BFFFF706FD001B022809D8286865
:101000008001F7D534E000BFFFF7FCFC001B02288D
:1010100002D90320BDE8F88F28688001F4D427E0C6
:101020000128F7D0D9F80000E26900F4800191426C
:101030001CD1226A00F03F01914217D147F6C071DE
:10104000626A0140B1EB821F10D1A26A4FF0FF33F8
:1010500000F4403103EB5202B1EB024F06D194F899
:101060002C1000F07060B0EB016F01D00120D1E7CF
:101070000020CFE70438024000004742800E47427C
:10108000007000400000FFFF10B5401EB0F1807FEF
:1010900001D3012010BD4FF0E02460610F216017E3
:1010A00001F003FE0020A06107202061002010BD98
:1010B0007047704770B590F83C20012A32D0012467
:1010C00080F83C40022280F83D2003685A689D6801
:1010D00022F070060A6832435A60134B02689A4243
:1010E00014D0B2F1804F11D0104B9A420ED0104B59
:1010F0009A420BD00F4B9A4208D00F4B9A4205D020
:101100000E4B9A4202D00E4B9A4204D1496825F008
:1011100080031943916080F83D40002180F83C1025
:10112000084670BD022070BD000001400004004070
:1011300000080040000C0040000401400040014055
:10114000001800402DE9F0410D46040003D094F84A
:101150003D0018B108E00120BDE8F081002084F8CE
:101160003C00204600F040F8022084F83D00206852
:10117000816844F2070291438160211D206801F0DB
:10118000DFFA226890689169166A2B68AF69034399
:1011900040F20330814341EA0721A868EF69084320
:1011A0004FF6FC418843E96840EA0720014328697B
:1011B0002F6A000140EA0730084369686D6926F02C
:1011C000AA0646EA0515294393602268906154F8FF
:1011D000460B0162012004F81F09E0752076E076D5
:1011E0002077A0750020B7E730B587B004461421FA
:1011F0006846FFF7B0F837482468354D0021354A76
:1012000014380223AC4222D1146844F00104146063
:10121000126802F001020592026842F010020260B8
:10122000006800F0100005904FF420600090CDE9B8
:1012300001310120CDE9031069462748FFF7E4FAA0
:10124000002201211B20FFF74BFC1B203BE0234D1C
:10125000AC423AD1146844F002041460126802F0FF
:1012600002020592026842F004020260006800F087
:1012700004000590C0200090CDE901310320CDE9A4
:10128000031069461648FFF7BFFA002211462B20CB
:10129000FFF726FC2B20FFF715FC002211462C201F
:1012A000FFF71EFC2C20FFF70DFC002211462D201D
:1012B000FFF716FC2D20FFF705FC002211462E201B
:1012C000FFF70EFC2E20FFF7FDFB07B030BD00003E
:1012D0000000014044380240001002400004014078
:1012E0000008024070B590F83E60044690F83F5008
:1012F00090F8423090F84320022021B104290ED00A
:10130000012E1BD114E0012E18D1012B16D184F827
:101310003E0084F8420001220021206820E0012DD7
:101320000CD1012A0AD184F83F0084F8430014E06C
:10133000012D03D1012B01D1012A01D0012070BD63
:1013400084F83E0084F83F0084F8420084F84300AB
:1013500001220021206801F05FFA012204212068A7
:1013600001F05AFA2068016841F001010160002093
:1013700070BD00002DE9F041FD4904462DED028BC2
:101380000127006809684FF6FF789FEDFA8B002669
:10139000FA4D884206D1207F012840D1687810B1EB
:1013A000012811D007E10021204600F086FD688069
:1013B0006F702068016A21F00A0101622068016AE9
:1013C00041F0020101622AE00021204600F075FD93
:1013D00080B2A88021684E626988884202D9A0EB59
:1013E000010004E004D2A0EB010101EB0800E88059
:1013F000E88801F026FD53EC182B01F035FD01F0D3
:10140000F3FC28706E702068016A21F00A01016205
:101410002068016A0162C16821F00201C160207F79
:10142000022840D1687810B1012811D0C3E004210E
:10143000204600F042FD68806F702068016A21F04C
:10144000A00101622068016A41F0200101622AE0E6
:101450000421204600F031FD80B2A88021684E6250
:101460006988884202D9A0EB010004E004D2A0EB15
:10147000010101EB0800E880E88801F0E2FC53EC90
:10148000182B01F0F1FC01F0AFFC28706E702068A1
:10149000016A21F0A00101622068016A0162C1684D
:1014A00021F00401C160207F042840D1687810B188
:1014B000012811D07FE00821204600F0FEFC688062
:1014C0006F702068016A21F4206101622068016A5E
:1014D00041F4007101622AE00821204600F0EDFC91
:1014E00080B2A88021684E626988884202D9A0EB48
:1014F000010004E004D2A0EB010101EB0800E88048
:10150000E88801F09EFC53EC182B01F0ADFC01F0D3
:101510006BFC28706E702068016A21F42061016202
:101520002068016A0162C16821F00801C160207F62
:10153000082840D1687810B1012811D03BE00C2177
:10154000204600F0BAFC68806F702068016A21F4C0
:10155000204101622068016A41F4005101622AE0E1
:101560000C21204600F0A9FC80B2A88021684E62C0
:101570006988884202D9A0EB010004E004D2A0EB04
:10158000010101EB0800E880E88801F05AFC53EC07
:10159000182B01F069FC01F027FC28706E702068A0
:1015A000016A21F4204101622068016A0162C16878
:1015B00021F01001C1606E492068483109688842F5
:1015C00006D1207F022840D1687810B1012811D0BF
:1015D0007FE00421204600F070FC68806F70206876
:1015E000016A21F0A00101622068016A41F0200136
:1015F00001622AE00421204600F05FFC80B2A8804E
:1016000021684E626988884202D9A0EB010004E09B
:1016100004D2A0EB010101EB0800E880E88801F0AA
:1016200010FC53EC182B01F01FFC01F0DDFB2870BF
:101630006E702068016A21F0A00101622068016AD1
:101640000162C16821F00401C160207F042840D1FB
:10165000687810B1012811D03BE00821204600F045
:101660002CFC68806F702068016A21F4206101629F
:101670002068016A41F4007101622AE008212046D5
:1016800000F01BFC80B2A88021684E626988884205
:1016900002D9A0EB010004E004D2A0EB010101EBB0
:1016A0000800E880E88801F0CCFB53EC182B01F02F
:1016B000DBFB01F099FB28706E702068016A21F451
:1016C000206101622068016A0162C16821F008019D
:1016D000C1602749206890310968884225D1207F60
:1016E000042822D1687878B101281ED1082120462B
:1016F00000F0E3FB80B2A88021684E6269888842CE
:1017000017D9A0EB010019E04FF00801204600F0C6
:10171000D4FB68806F702068016A21F42061016247
:101720002068016A41F400710162BDEC028BBDE8E2
:10173000F08104D2A0EB010101EB0800E880E88809
:1017400001F07FFB53EC182B01F08EFB01F04CFBFA
:1017500028706E702068016A21F42061016220689F
:10176000016A0162C16821F00801C160DDE7000083
:10177000A80000209CC420B07268913F00000020A7
:101780002DE9F041054690F83C0000260C46012862
:1017900010D0012085F83C0072B1042A1CD0082A20
:1017A0002CD00C2A50D00126002085F83C00304671
:1017B000BDE8F0810220FBE7D4E90012E368286865
:1017C00001F0FAF82868816921F00C01816128682C
:1017D0008169A26811430FE0D4E90012E368286828
:1017E00001F02AF92868816921F440618161286843
:1017F0008169A26841EA02218161D5E72868D4E9BC
:10180000002C277B036A016A21F480710162C1699F
:1018100023F4206321F0030141EA0C0121F0F00CD4
:1018200039074FF420674CEA116107EA02221A4394
:10183000C16102622868C16921F00C01C161286898
:10184000C169A26811432BE02868D4E90021E76848
:10185000036AD0F820C02CF4805CC0F820C0D0F817
:101860001CC023F420432CF4407C4CEA012121F4D9
:10187000704C4FF6FF7101EA07314FF4204741EAFF
:101880000C0107EA02321A43C16102622868C16989
:1018900021F44061C1612868C169A26841EA02215E
:1018A000C16181E710B5040003D094F83D0010B188
:1018B00007E0012010BD002084F83C00204600F025
:1018C0001FF8022084F83D00211D206800F038FF39
:1018D000012084F8460084F83E0084F83F0084F834
:1018E000400084F8410084F8420084F8430084F802
:1018F000440084F8450084F83D00002010BD00003D
:1019000070B586B0044614216846FEF724FD3C49B4
:101910003A4B226800243A4810390225394E9A423F
:1019200044D1026842F002020260006800F0020046
:101930000590086840F001000860086800F00100A8
:101940000590086840F002000860086800F0020096
:101950000590086840F0040008600868694600F0D7
:1019600004000590C0200090CDE901542648CDE93F
:101970000345FEF749FF01200090CDE90154694677
:101980003046CDE90345FEF73FFF28020090CDE940
:10199000015469461D48CDE90345FEF735FF002295
:1019A00011461D20FFF79CF81D2023E0184B9A429A
:1019B00022D1026842F004020260006800F00400D4
:1019C0000590086840F0020008600868694600F069
:1019D000020005904FF4C0700090CDE901543046EC
:1019E000CDE90345FEF710FF002211461E20FFF748
:1019F00077F81E20FFF766F806B070BD00040040BF
:101A0000403802400004024000000240000802404A
:101A10000008004030B50446002551B104290DD01E
:101A2000082910D094F8410094F84520012811D1DC
:101A30000EE094F83E0094F84220F7E794F83F0057
:101A400094F84320F2E794F8400094F84420EDE73E
:101A5000012A01D0012030BD022059B1042912D041
:101A6000082919D084F8410084F845000C2944D095
:101A7000012540E084F83E0084F842002068C268F6
:101A800042F0020210E084F83F0084F8430020682E
:101A9000C26842F0040207E084F8400084F8440081
:101AA0002068C26842F00802C2600122206800F08B
:101AB000B3FE14492068884214D0B0F1804F11D091
:101AC000114988420ED0114988420BD010498842F2
:101AD00008D01049884205D00F49884202D00F49EA
:101AE000884204D1816801F00701062903D001680A
:101AF00041F001010160284630BD2068C26842F013
:101B00001002D1E70000014000040040000800403E
:101B1000000C00400004014000400140001800405B
:101B20002DE9F04104460068C66805694FF00007DA
:101B3000A90713D5B10711D5F91E0161012020773E
:101B4000206880698007204602D0FFF713FC04E07C
:101B500000F0A6F8204600F049F92777680716D567
:101B6000700714D521686FF0040008610220207707
:101B70002068806910F4407F204602D0FFF7FAFB0E
:101B800004E000F08DF8204600F030F927772807B0
:101B900015D5300713D521686FF0080008610420BF
:101BA00020772068C0698007204602D0FFF7E2FB5B
:101BB00004E000F075F8204600F018F92777E806F1
:101BC00016D5F00614D521686FF0100008610820C2
:101BD00020772068C06910F4407F204602D0FFF7CC
:101BE000C9FB04E000F05CF8204600F0FFF827771E
:101BF000E80708D0F00706D021686FF001000861FF
:101C0000204600F059F9280608D5300606D5216887
:101C10006FF0800008612046FFF74AFA680608D591
:101C2000700606D521686FF040000861204600F07C
:101C300059F9A8060AD5B00608D521686FF020002A
:101C400008612046BDE8F041FFF733BABDE8F081F6
:101C500010B586B0044614216846FEF77CFB206868
:101C6000B0F1804F16D10C480021026842F0020208
:101C70000260006800F0020005904FF440600090A0
:101C80000220CDE901010120CDE903106946034896
:101C9000FEF7BAFD06B010BD303802400004024025
:101CA000704770B5044690F83C0000260D460128A8
:101CB0000FD0012084F83C006AB1042A1DD0082A04
:101CC0002FD00C2A3FD00126002084F83C0030465B
:101CD00070BD022070BD206800F0ACFD20688169F5
:101CE00041F0080181612068816921F0040181616E
:101CF000206881692A69114311E0206800F0CAFD5B
:101D00002068816941F4006181612068816921F462
:101D100080618161206881692A6941EA02218161CB
:101D2000D2E7206800F0ECFD2068C16941F00801AD
:101D3000C1612068C16921F00401C1612068C169E5
:101D40002A69114311E0206800F00EFE2068C16985
:101D500041F40061C1612068C16921F48061C16101
:101D60002068C1692A6941EA0221C161ACE710B566
:101D7000040003D094F83D0010B107E0012010BD2D
:101D8000002084F83C00204600F01EF8022084F871
:101D90003D00211D206800F0D3FC012084F846009E
:101DA00084F83E0084F83F0084F8400084F8410045
:101DB00084F8420084F8430084F8440084F8450025
:101DC00084F83D00002010BD08B50068B0F1804FD8
:101DD00008D10548016841F001010160006800F088
:101DE0000100009008BD000040380240704700002C
:101DF00010B50446022249B104290ED0082913D097
:101E000094F84100012816D0012010BD94F83E003E
:101E10000128F9D184F83E200FE094F83F00012812
:101E2000F2D184F83F2008E094F840000128EBD17B
:101E300084F8402001E084F841200122206800F06D
:101E4000EBFC16492068164A884201D0904203D123
:101E5000436C43F4004343642068884213D0B0F1DC
:101E6000804F10D00F4988420DD00F4988420AD0C8
:101E70000E49884207D0904205D00D49884202D0D1
:101E80000C49884204D1816801F00701062903D07A
:101E9000016841F001010160002010BD0000014017
:101EA000000401400004004000080040000C004015
:101EB000004001400018004070470246002041B138
:101EC000042909D008290AD00C2901D11068006C16
:101ED00070471068406B70471068806B70471068DF
:101EE000C06B70477047704770470000F8B50168D5
:101EF00004460868CA684B6910F00F0F4FF00005E0
:101F000059D003F0010602F49077374365D0C1073A
:101F100005D0D10503D5616C41F001016164410731
:101F200005D5D90703D0616C41F0020161648107D6
:101F300005D5D90703D0616C41F004016164010744
:101F400007D502F02001314303D0616C41F0080154
:101F50006164616C00293AD0800604D5900602D5F0
:101F6000204600F0B3FD20684069616CC0F380102A
:101F7000090700D460B3204600F081FD2068406965
:101F8000400621D52068143050E8001F21F04001A0
:101F900040E80012002AF5D1E06BA8B16E49016556
:101FA000E06BFEF7D3FA002811D0E06B016D01B0B1
:101FB000BDE8F040084783060FD593060DD52046AF
:101FC000BDE8F84000F082BD2046FFF78DFFF8BD68
:101FD0002046FFF789FF6564F8BD266B2023012E9C
:101FE0007DD1C6067BD5D60679D5086848680090AD
:101FF00048694FF00206400641D5E16B0868406829
:102000000004000CE8D0A28D8242E5D9E085C869C1
:10201000B0F5807F2DD020680C3050E8001F21F4EF
:10202000807140E80012002AF5D12068143050E891
:10203000001F21F0010140E80012002AF5D12068BC
:10204000143050E8001F21F0400140E80012002A3F
:10205000F5D184F84230256320680C3050E8001F29
:1020600021F0100140E80012002AF5D1E06BFEF7E4
:1020700024FA6663A08DE18D401A81B22AE0A08D1A
:10208000E18D401A81B2E08D0028A5D00029A3D0AF
:1020900022680C3252E8000F20F4907042E80007EA
:1020A000002FF5D12068143050E8002F22F00102F3
:1020B00040E80027002FF5D184F8423025632068DE
:1020C0000C3050E8002F22F0100240E80023002BD3
:1020D000F5D166632046FFF706FFF8BDFFE705066A
:1020E0002BD5150629D594F841002128F5D1A068F3
:1020F000B0F5805F01D12069B0B1206A411C216236
:10210000216800784860E08C401E0004000CE084E8
:10211000E3D12068C16821F08001C1602068C168F6
:1021200041F04001C160D8E7206A0088C0F3080090
:102130004860206A801C2062E5E74006CDD5500645
:10214000CBD5CA68204622F04002CA6084F84130EC
:1021500000F0C4F8C1E700006F2A000870B5040061
:1021600004D094F84100002510B106E0012070BDB4
:1021700084F84050204600F023F8242084F84100E1
:102180002068C16821F40051C160204600F000FDC4
:102190002068016921F4904101612068416921F0C2
:1021A0002A0141612068C16841F40051C160656441
:1021B000202084F8410084F842006563002070BD4F
:1021C0002DE9F04387B0064614216846FEF7C3F8B0
:1021D0002F493068884258D12E480024016841F4C4
:1021E00000310160006800F4003005902948103883
:1021F000016841F0010101600068694600F00100DA
:1022000005900C2000900220CDE9010403200390EA
:10221000072004902048FEF7F7FA214D1F484FF0A1
:1022200000672860C5E901744FF48068C5E9034878
:102230004FF480796C61C5E906492C6228466C62CE
:10224000FEF766FA08B1FEF736F9F563AE63134898
:10225000144D1830E5E802074020A5E811011148A7
:1022600045F81449C5E906492C626C62FEF750FA3C
:1022700008B1FEF720F9B563002201212620AE63E4
:10228000FEF72EFC2620FEF71DFC07B0BDE8F0830C
:102290000044004040380240000002408860024094
:1022A000C801002028020020704790F84130202B00
:1022B00001D00220704779B172B101628284C28478
:1022C00000214164212180F841100068C16841F07B
:1022D0008001C16000207047012070477047FEE711
:1022E0002DE9F04387B014216846FEF734F83348EF
:1022F0000024016841F010010160016801F0100143
:102300000591016841F004010160016801F00401D8
:102310000591016841F080010160016801F08001D0
:102320000591016841F001010160016801F00101BE
:102330000591016841F002010160016801F00201AC
:102340000591016841F00801016000681C4F00F030
:10235000080040F211150590002229463846FEF784
:102360004BFBDFF860804AF2A0060022314640466F
:10237000FEF742FBDFF85090002278214846FEF736
:102380003BFB00950125CDE901546946384603948D
:10239000FEF73AFA0096CDE90154694640460394A7
:1023A000FEF732FA78200090CDE90154694648469C
:1023B0000394FEF729FA07B0BDE8F08330380240F5
:1023C00000100240000C02400004024010B58CB026
:1023D00024216846FDF7BFFF0024164809941449DC
:1023E0000A94C0E900144FF6FF71C0E9024104618C
:1023F000446184610320CDE900040120CDE9020499
:102400000494CDE90540079469460A480894FEF70C
:1024100099FE08B172B6FEE7099409A905480A9425
:10242000FEF748FE002801D072B6FEE70CB010BDE2
:10243000000001401800002010B58AB00024079465
:102440001C2168460894FDF786FF1A484FF080412A
:102450000160A721C0E9011440F2E731C0E903148B
:102460008461FFF784FC08B172B6FEE7079407A900
:1024700010480894FEF71EFE08B172B6FEE7602011
:10248000CDE900040294082269460A480494FFF743
:1024900008FC08B172B6FEE70C2269460548FFF752
:1024A00000FC08B172B6FEE70248FFF7D1FB0AB0A4
:1024B00010BD00006000002010B586B00024244844
:1024C00005940494009401940294204903940160BB
:1024D0005321C0E901144FF6FF71C0E90314846170
:1024E000FFF7E0F908B172B6FEE7049404A91848B2
:1024F0000594FEF7DFFD08B172B6FEE70120CDE9D5
:10250000004002940022694611480394FFF738F90D
:1025100008B172B6FEE7042269460D48FFF730F9AC
:1025200008B172B6FEE7082269460948FFF728F9A4
:1025300008B172B6FEE70C2269460548FFF720F99C
:10254000002801D072B6FEE706B010BD00040040BE
:10255000A800002010B586B000241C4805940494FF
:102560000094019402941849039401605321C0E936
:1025700001144FF6FF71C0E903148461FFF792F96B
:1025800008B172B6FEE7049404A910480594FEF75A
:1025900091FD08B172B6FEE70120CDE9004002943A
:1025A0000422694609480394FFF7EAF808B172B6B5
:1025B000FEE7082269460548FFF7E2F8002801D047
:1025C00072B6FEE706B010BD00080040F000002023
:1025D00010B58CB024216846FDF7BDFE00241648D6
:1025E000099414490A94C0E900144FF6FF71C0E938
:1025F00002410461446184610320CDE900040120AB
:10260000CDE902040494CDE90540079469460A48DF
:102610000894FEF797FD08B172B6FEE7099409A980
:1026200005480A94FEF746FD002801D072B6FEE781
:102630000CB010BD0004014038010020FEE7FEE7A9
:1026400070477047FEF7E4B930B593B03021684663
:10265000FDF781FE14210CA8FDF77DFE1D48002525
:10266000016841F080510160006800F080501190D5
:102670001948016841F4804101600068022400F4B7
:102680008040119001200390102004900094069443
:102690000820CDE90750A820CDE9090404200B90BB
:1026A0006846FEF73BFB08B172B6FEE70CA90F20A7
:1026B00081E831004FF4A0500F904FF480501090FB
:1026C00005210CA8FEF73EFA002801D072B6FEE7FD
:1026D00013B030BD4038024000700040024801682D
:1026E00041F470010160704788ED00E00148FFF798
:1026F00017BA0000180000200148FFF711BA0000C7
:10270000A80000200148FFF70BBA0000F0000020ED
:102710000148FFF705BA0000380100200148FFF723
:10272000FFB90000380100200148FFF7F9B90000A7
:10273000380100200148FFF7F3B9000038010020FC
:10274000F0B50268294C2A4D2A4E2B4F2B4B4FF0E7
:10275000804CA04209D0604507D0A84205D0B042C5
:1027600003D0B84201D0984204D122F0700E4A68DA
:1027700042EA0E02A0421BD0604519D0A84217D0F1
:10278000B04215D0B84213D0984211D01C4DA84287
:102790000ED01C4DA8420BD01B4DA84208D01B4D9B
:1027A000A84205D01A4DA84202D01A4DA84203D122
:1027B00022F44075CA682A434D6922F080022A43F8
:1027C00002608A68C2620A688262A04201D09842AE
:1027D00001D109690163012141610169C90703D080
:1027E000016921F001010161F0BD0000000001401C
:1027F0000004004000080040000C004000040140BC
:1028000000400140004401400048014000180040E1
:10281000001C00400020004010B501F01F03012102
:10282000046A99408C430462016A9A401143016230
:1028300010BD0000F0B5036A026A22F001020262D4
:1028400042688469124E24F073050C682C4323F00F
:1028500002058B682B430D4DA84201D0B04205D133
:1028600023F00807CB683B4323F00403A84201D0C0
:10287000B04205D14D6922F4407215438A692A435A
:1028800042608461496841630362F0BD0000014019
:1028900000040140F0B5026A036A23F010030362EA
:1028A000436884690D6824F4E64444EA05248D688D
:1028B00022F0200242EA05120F4D104EA84201D02C
:1028C000B04206D1CF6822F0800242EA071222F01D
:1028D0004002A84201D0B04207D14D6923F44063C1
:1028E00043EA85038D6943EA85034360846149684F
:1028F00081630262F0BD000000000140000401405D
:10290000F0B5026A036A23F4807303624368C46902
:1029100022F4007224F073050C68124E2C438D686B
:1029200042EA05220E4DA84201D0B04206D1CF683E
:1029300022F4006242EA072222F48062A84201D017
:10294000B04207D14D6923F4405343EA05138D6922
:1029500043EA05134360C4614968C1630262F0BD84
:10296000000001400004014030B5046A026A22F40C
:10297000805202624268C3690D6823F4E64343EA69
:1029800005238D6824F4005444EA0534084DA84218
:1029900002D0084DA84204D14D6922F4804242EA97
:1029A00085124260C36149680164046230BD000061
:1029B000000001400004014070B5056A046A24F07B
:1029C000010404628469154EB04214D0B0F1804F06
:1029D00011D0134EB0420ED0124EB0420BD0124E58
:1029E000B04208D0114EB04205D0114EB04202D0D4
:1029F000104EB04203D124F00304144301E044F02C
:102A000001041A0724F0F00444EA126225F00A03D4
:102A100001F00A0119438261016270BD00000140AA
:102A20000004004000080040000C00400004014089
:102A3000004001400018004030B5046A056A25F0E6
:102A400010050562856925F4407545EA022222F4E5
:102A500070454FF6FF7202EA033224F0A0032A43C6
:102A6000A02404EA011119438261016230BD10B54E
:102A7000806B0021C185C184FFF736FA10BD016863
:102A80000C3151E8002F22F4907241E80023002B12
:102A9000F5D10168143151E8002F22F0010241E81C
:102AA0000023002BF5D1016B012909D101680C31FC
:102AB00051E8002F22F0100241E80023002BF5D14D
:102AC000202180F8421000210163704708B590F87A
:102AD0004210222901D0022008BD82684FF48053A1
:102AE0009A4201D1016921B1816A9A421BD04AB14F
:102AF0000AE00268816A5268C2F308020A80816AA9
:102B0000891C08E0026972B10268526802F07F0213
:102B10000A70816A491C8162C18D491E0904090C31
:102B2000C18503D01BE002685268F1E70168CA68FA
:102B300022F02002CA600168CA6822F48072CA606A
:102B400001684A6922F001024A61202180F842109E
:102B500000214163026B012A03D0FFF7A5FB00208F
:102B600008BD016301680C3151E8002F22F010020A
:102B700041E80023002BF5D101680A68D20602D58E
:102B80000A6849680091818DFFF7ADF9E7E7000019
:102B900070B5044600680169E26821F440511143B0
:102BA00001612169A068E269084361691143084332
:102BB0002168CA6849F20C639A430243CA602068DC
:102BC0004169A26921F44071114341613149206892
:102BD000884202D03049884202D1FEF75DF801E018
:102BE000FEF74AF8E2690023192164253226B2F57E
:102BF000004F626828D0A0FB0101930F9200FDF7FF
:102C000033FB0146B0FBF5F06FF01802504301EBC7
:102C1000800006EB0010B0FBF5F000F0F002B1FB15
:102C2000F5F002EB0012B1FBF5F06FF0180358431A
:102C300001EB800006EB0010B0FBF5F000F00F0098
:102C400021681044886070BDA0FB010192185B41AF
:102C5000FDF70AFB0146B0FBF5F00201B1FBF5F010
:102C60006FF01803584301EB800006EBC000B0FB87
:102C7000F5F000F0F80002EB4002B1FBF5F058432C
:102C800001EB800006EBC000B0FBF5F000F00700A0
:102C9000D6E7000000100140001401400148FFF792
:102CA00025B9000080010020FEE70907090E002871
:102CB00004DB00F1E02080F80014704700F00F0002
:102CC00000F1E02080F8141D704700001FB5FDF7EB
:102CD000A7FEFFF7B9FCFFF703FB3E48002401689D
:102CE00041F4001101600068224600F400100390D6
:102CF00021461020FDF7F4FE1020FDF7E3FE002230
:102D000011461120FDF7ECFE1120FDF7DBFEFFF769
:102D10005DFBFFF791FBFFF7CFFBFFF71BFCFFF716
:102D200057FC2E482C4901604FF4E131C0E90114F1
:102D30000C21C460C0E904418461C461FFF70EFA4C
:102D400008B172B6FEE725480021D838FEF762FECA
:102D500022480421D838FEF75DFE20480821D838E3
:102D6000FEF758FE1D480C21D838FEF753FE1B48CD
:102D700004219038FEF74EFE184808219038FEF7DF
:102D800049FE00211648FEF7ADFA04211448FEF76B
:102D9000A9FA124800214838FEF7A4FA0F48042186
:102DA0004838FEF79FFA0E4808214830FFF720F810
:102DB0000B480C214830FFF71BF80A4A07CA8DE878
:102DC00007006420FDF70EFD092269460348FFF75E
:102DD0006CFAF6E7303802400044004080010020E1
:102DE00018000020703000084FEA1153A3F58063EB
:102DF000D3F11E03A8BFD3F1200C08DB4FF0004233
:102E000042EAC12252EA505232FA03F070470942B4
:102E10000BD4102BC4BF0020704703F5787CBCF1A5
:102E2000FF3F05D04FF0FF3070474FF00000704774
:102E300070B500F0C3F800BF4992248000207047AD
:102E4000F0E7B0FA80F310FA03F10AD0C3F11D03E2
:102E500003F580634FEA41504FEA035202EBD12160
:102E600070474FF000007047DFF848C170B51CEAAA
:102E7000111E1EBF1CEA13159EEA0C0F95EA0C0FDB
:102E800000F06F8081EA030423EA4C134EEAD47EFB
:102E900021EA4C1141F4801143F48013AE44A1FBAC
:102EA000024CA0FB0365AEF17F7E361955EB0C0595
:102EB000A1FB034C4CF10003A0FB021C16EB0C061B
:102EC000654153F10003094218BF46F0010613F4AF
:102ED000007F0BD14FEA03314FEA0530340341EA5A
:102EE000155140EA16506FF003020AE04FEAC32181
:102EF0004FEAC520F40241EA555140EA56506FF0BE
:102F0000020202EB2E4201EB025585EACE710AD095
:102F10005FEA440C18BF24F0004450F1000041F176
:102F2000000120EAD47040F2FE7C624500D270BD00
:102F3000A84214BF4FF080444FF04044002E08BF19
:102F40000024BEF1806FA8BFA1F1C041BDE8704070
:102F500080F282804FF0000001F1C04101F0004199
:102F600070479EEA0C0F0CEA131518BF95EA0C0F78
:102F700006D04FF0000081EA030E0EF0004170BD54
:102F800000F01CF88900013E00F007B800F009B815
:102F90004FEA430C5FEA5C5C08D081EA030100F071
:102FA0005BB84FEA410C5FEA5C5CF6D14FF0000081
:102FB000014970470000FF070000F87F0EF1020E84
:102FC0002EF0030E5EF8046B364205D4012A43EB63
:102FD000030515F5001F12D8012841EB010C1CF563
:102FE000001F0CD80ED14FEAD17C15F5001F0CEB59
:102FF0004C0C0CF1020C08BF4CEBD37C04E04FF0FE
:10300000080C01E04FEAD37C0CEB4C0526FA05F6E0
:1030100006F00706B6F1040C06D20EEB860CBDE8EE
:1030200070404CF0010C6047DFE80CF0090B020225
:103030004FF000414FF00000A1F5002170BD19468E
:103040001046012851EB010418BFD4F5001484BFC9
:10305000002001F0004170BD0808A0F500114FEA02
:10306000310170474FF04070E1EE100A70470000E8
:1030700068656C6C6F0000000000061016000610FA
:10308000160000000000000000010203040607080B
:10309000090000000001020304000000BC30000829
:1030A0000000002018000000C4010008D43000080F
:1030B00018000020D0080000E00100080000000017
:1030C00000000000010000001000000000000000EF
:0430D0000024F400E4
:040000050800018965
:00000001FF
